{
  "_format": "hh-sol-artifact-1",
  "contractName": "UserStorage",
  "sourceName": "contracts/UserStorage.sol",
  "abi": [
    {
      "inputs": [],
      "stateMutability": "nonpayable",
      "type": "constructor"
    },
    {
      "inputs": [
        {
          "internalType": "string",
          "name": "_role",
          "type": "string"
        },
        {
          "internalType": "string",
          "name": "_name",
          "type": "string"
        },
        {
          "internalType": "string",
          "name": "_email",
          "type": "string"
        }
      ],
      "name": "addUser",
      "outputs": [],
      "stateMutability": "nonpayable",
      "type": "function"
    },
    {
      "inputs": [],
      "name": "admin",
      "outputs": [
        {
          "internalType": "address",
          "name": "",
          "type": "address"
        }
      ],
      "stateMutability": "view",
      "type": "function"
    },
    {
      "inputs": [],
      "name": "getAllUsers",
      "outputs": [
        {
          "components": [
            {
              "internalType": "string",
              "name": "role",
              "type": "string"
            },
            {
              "internalType": "string",
              "name": "name",
              "type": "string"
            },
            {
              "internalType": "string",
              "name": "email",
              "type": "string"
            },
            {
              "internalType": "uint256",
              "name": "signupTimestamp",
              "type": "uint256"
            },
            {
              "internalType": "uint256",
              "name": "lastLoginTimestamp",
              "type": "uint256"
            }
          ],
          "internalType": "struct UserStorage.User[]",
          "name": "",
          "type": "tuple[]"
        }
      ],
      "stateMutability": "view",
      "type": "function"
    },
    {
      "inputs": [
        {
          "internalType": "address",
          "name": "_user",
          "type": "address"
        }
      ],
      "name": "recordLogin",
      "outputs": [],
      "stateMutability": "nonpayable",
      "type": "function"
    },
    {
      "inputs": [
        {
          "internalType": "uint256",
          "name": "",
          "type": "uint256"
        }
      ],
      "name": "userAddresses",
      "outputs": [
        {
          "internalType": "address",
          "name": "",
          "type": "address"
        }
      ],
      "stateMutability": "view",
      "type": "function"
    },
    {
      "inputs": [
        {
          "internalType": "address",
          "name": "",
          "type": "address"
        }
      ],
      "name": "users",
      "outputs": [
        {
          "internalType": "string",
          "name": "role",
          "type": "string"
        },
        {
          "internalType": "string",
          "name": "name",
          "type": "string"
        },
        {
          "internalType": "string",
          "name": "email",
          "type": "string"
        },
        {
          "internalType": "uint256",
          "name": "signupTimestamp",
          "type": "uint256"
        },
        {
          "internalType": "uint256",
          "name": "lastLoginTimestamp",
          "type": "uint256"
        }
      ],
      "stateMutability": "view",
      "type": "function"
    }
  ],
  "bytecode": "0x6080604052348015600f57600080fd5b5033600260006101000a81548173ffffffffffffffffffffffffffffffffffffffff021916908373ffffffffffffffffffffffffffffffffffffffff1602179055506113f3806100606000396000f3fe608060405234801561001057600080fd5b50600436106100625760003560e01c80630b5b48c114610067578063502c9bd51461008357806395c5fed4146100b3578063a87430ba146100cf578063e2842d7914610103578063f851a44014610121575b600080fd5b610081600480360381019061007c9190610a0e565b61013f565b005b61009d60048036038101906100989190610a71565b61020c565b6040516100aa9190610aad565b60405180910390f35b6100cd60048036038101906100c89190610c0e565b61024b565b005b6100e960048036038101906100e49190610a0e565b6103f6565b6040516100fa959493929190610d43565b60405180910390f35b61010b6105c4565b6040516101189190610f4a565b60405180910390f35b610129610947565b6040516101369190610aad565b60405180910390f35b60008060008373ffffffffffffffffffffffffffffffffffffffff1673ffffffffffffffffffffffffffffffffffffffff16815260200190815260200160002060030154036101c3576040517f08c379a00000000000000000000000000000000000000000000000000000000081526004016101ba90610fb8565b60405180910390fd5b426000808373ffffffffffffffffffffffffffffffffffffffff1673ffffffffffffffffffffffffffffffffffffffff1681526020019081526020016000206004018190555050565b6001818154811061021c57600080fd5b906000526020600020016000915054906101000a900473ffffffffffffffffffffffffffffffffffffffff1681565b60008060003373ffffffffffffffffffffffffffffffffffffffff1673ffffffffffffffffffffffffffffffffffffffff16815260200190815260200160002060030154146102cf576040517f08c379a00000000000000000000000000000000000000000000000000000000081526004016102c690611024565b60405180910390fd5b6040518060a0016040528084815260200183815260200182815260200142815260200160008152506000803373ffffffffffffffffffffffffffffffffffffffff1673ffffffffffffffffffffffffffffffffffffffff168152602001908152602001600020600082015181600001908161034a9190611250565b5060208201518160010190816103609190611250565b5060408201518160020190816103769190611250565b5060608201518160030155608082015181600401559050506001339080600181540180825580915050600190039060005260206000200160009091909190916101000a81548173ffffffffffffffffffffffffffffffffffffffff021916908373ffffffffffffffffffffffffffffffffffffffff160217905550505050565b600060205280600052604060002060009150905080600001805461041990611073565b80601f016020809104026020016040519081016040528092919081815260200182805461044590611073565b80156104925780601f1061046757610100808354040283529160200191610492565b820191906000526020600020905b81548152906001019060200180831161047557829003601f168201915b5050505050908060010180546104a790611073565b80601f01602080910402602001604051908101604052809291908181526020018280546104d390611073565b80156105205780601f106104f557610100808354040283529160200191610520565b820191906000526020600020905b81548152906001019060200180831161050357829003601f168201915b50505050509080600201805461053590611073565b80601f016020809104026020016040519081016040528092919081815260200182805461056190611073565b80156105ae5780601f10610583576101008083540402835291602001916105ae565b820191906000526020600020905b81548152906001019060200180831161059157829003601f168201915b5050505050908060030154908060040154905085565b6060600260009054906101000a900473ffffffffffffffffffffffffffffffffffffffff1673ffffffffffffffffffffffffffffffffffffffff163373ffffffffffffffffffffffffffffffffffffffff1614610656576040517f08c379a000000000000000000000000000000000000000000000000000000000815260040161064d9061136e565b60405180910390fd5b600060018054905067ffffffffffffffff81111561067757610676610ae3565b5b6040519080825280602002602001820160405280156106b057816020015b61069d61096d565b8152602001906001900390816106955790505b50905060005b60018054905081101561093f57600080600183815481106106da576106d961138e565b5b9060005260206000200160009054906101000a900473ffffffffffffffffffffffffffffffffffffffff1673ffffffffffffffffffffffffffffffffffffffff1673ffffffffffffffffffffffffffffffffffffffff1681526020019081526020016000206040518060a001604052908160008201805461075a90611073565b80601f016020809104026020016040519081016040528092919081815260200182805461078690611073565b80156107d35780601f106107a8576101008083540402835291602001916107d3565b820191906000526020600020905b8154815290600101906020018083116107b657829003601f168201915b505050505081526020016001820180546107ec90611073565b80601f016020809104026020016040519081016040528092919081815260200182805461081890611073565b80156108655780601f1061083a57610100808354040283529160200191610865565b820191906000526020600020905b81548152906001019060200180831161084857829003601f168201915b5050505050815260200160028201805461087e90611073565b80601f01602080910402602001604051908101604052809291908181526020018280546108aa90611073565b80156108f75780601f106108cc576101008083540402835291602001916108f7565b820191906000526020600020905b8154815290600101906020018083116108da57829003601f168201915b50505050508152602001600382015481526020016004820154815250508282815181106109275761092661138e565b5b602002602001018190525080806001019150506106b6565b508091505090565b600260009054906101000a900473ffffffffffffffffffffffffffffffffffffffff1681565b6040518060a0016040528060608152602001606081526020016060815260200160008152602001600081525090565b6000604051905090565b600080fd5b600080fd5b600073ffffffffffffffffffffffffffffffffffffffff82169050919050565b60006109db826109b0565b9050919050565b6109eb816109d0565b81146109f657600080fd5b50565b600081359050610a08816109e2565b92915050565b600060208284031215610a2457610a236109a6565b5b6000610a32848285016109f9565b91505092915050565b6000819050919050565b610a4e81610a3b565b8114610a5957600080fd5b50565b600081359050610a6b81610a45565b92915050565b600060208284031215610a8757610a866109a6565b5b6000610a9584828501610a5c565b91505092915050565b610aa7816109d0565b82525050565b6000602082019050610ac26000830184610a9e565b92915050565b600080fd5b600080fd5b6000601f19601f8301169050919050565b7f4e487b7100000000000000000000000000000000000000000000000000000000600052604160045260246000fd5b610b1b82610ad2565b810181811067ffffffffffffffff82111715610b3a57610b39610ae3565b5b80604052505050565b6000610b4d61099c565b9050610b598282610b12565b919050565b600067ffffffffffffffff821115610b7957610b78610ae3565b5b610b8282610ad2565b9050602081019050919050565b82818337600083830152505050565b6000610bb1610bac84610b5e565b610b43565b905082815260208101848484011115610bcd57610bcc610acd565b5b610bd8848285610b8f565b509392505050565b600082601f830112610bf557610bf4610ac8565b5b8135610c05848260208601610b9e565b91505092915050565b600080600060608486031215610c2757610c266109a6565b5b600084013567ffffffffffffffff811115610c4557610c446109ab565b5b610c5186828701610be0565b935050602084013567ffffffffffffffff811115610c7257610c716109ab565b5b610c7e86828701610be0565b925050604084013567ffffffffffffffff811115610c9f57610c9e6109ab565b5b610cab86828701610be0565b9150509250925092565b600081519050919050565b600082825260208201905092915050565b60005b83811015610cef578082015181840152602081019050610cd4565b60008484015250505050565b6000610d0682610cb5565b610d108185610cc0565b9350610d20818560208601610cd1565b610d2981610ad2565b840191505092915050565b610d3d81610a3b565b82525050565b600060a0820190508181036000830152610d5d8188610cfb565b90508181036020830152610d718187610cfb565b90508181036040830152610d858186610cfb565b9050610d946060830185610d34565b610da16080830184610d34565b9695505050505050565b600081519050919050565b600082825260208201905092915050565b6000819050602082019050919050565b600082825260208201905092915050565b6000610df382610cb5565b610dfd8185610dd7565b9350610e0d818560208601610cd1565b610e1681610ad2565b840191505092915050565b610e2a81610a3b565b82525050565b600060a0830160008301518482036000860152610e4d8282610de8565b91505060208301518482036020860152610e678282610de8565b91505060408301518482036040860152610e818282610de8565b9150506060830151610e966060860182610e21565b506080830151610ea96080860182610e21565b508091505092915050565b6000610ec08383610e30565b905092915050565b6000602082019050919050565b6000610ee082610dab565b610eea8185610db6565b935083602082028501610efc85610dc7565b8060005b85811015610f385784840389528151610f198582610eb4565b9450610f2483610ec8565b925060208a01995050600181019050610f00565b50829750879550505050505092915050565b60006020820190508181036000830152610f648184610ed5565b905092915050565b7f5573657220646f6573206e6f7420657869737400000000000000000000000000600082015250565b6000610fa2601383610cc0565b9150610fad82610f6c565b602082019050919050565b60006020820190508181036000830152610fd181610f95565b9050919050565b7f5573657220616c72656164792065786973747300000000000000000000000000600082015250565b600061100e601383610cc0565b915061101982610fd8565b602082019050919050565b6000602082019050818103600083015261103d81611001565b9050919050565b7f4e487b7100000000000000000000000000000000000000000000000000000000600052602260045260246000fd5b6000600282049050600182168061108b57607f821691505b60208210810361109e5761109d611044565b5b50919050565b60008190508160005260206000209050919050565b60006020601f8301049050919050565b600082821b905092915050565b6000600883026111067fffffffffffffffffffffffffffffffffffffffffffffffffffffffffffffffff826110c9565b61111086836110c9565b95508019841693508086168417925050509392505050565b6000819050919050565b600061114d61114861114384610a3b565b611128565b610a3b565b9050919050565b6000819050919050565b61116783611132565b61117b61117382611154565b8484546110d6565b825550505050565b600090565b611190611183565b61119b81848461115e565b505050565b5b818110156111bf576111b4600082611188565b6001810190506111a1565b5050565b601f821115611204576111d5816110a4565b6111de846110b9565b810160208510156111ed578190505b6112016111f9856110b9565b8301826111a0565b50505b505050565b600082821c905092915050565b600061122760001984600802611209565b1980831691505092915050565b60006112408383611216565b9150826002028217905092915050565b61125982610cb5565b67ffffffffffffffff81111561127257611271610ae3565b5b61127c8254611073565b6112878282856111c3565b600060209050601f8311600181146112ba57600084156112a8578287015190505b6112b28582611234565b86555061131a565b601f1984166112c8866110a4565b60005b828110156112f0578489015182556001820191506020850194506020810190506112cb565b8683101561130d5784890151611309601f891682611216565b8355505b6001600288020188555050505b505050505050565b7f4f6e6c792061646d696e2063616e206163636573730000000000000000000000600082015250565b6000611358601583610cc0565b915061136382611322565b602082019050919050565b600060208201905081810360008301526113878161134b565b9050919050565b7f4e487b7100000000000000000000000000000000000000000000000000000000600052603260045260246000fdfea26469706673582212203d55c7c90bb4c92985ddbd1eec2ab9bb641d280cf0f3ee9330ab547cc455691664736f6c634300081c0033",
  "linkReferences": {},
  "deployedLinkReferences": {}
}