{
  "contractName": "DoctorRegistry",
  "abi": [
    {
      "anonymous": false,
      "inputs": [
        {
          "indexed": true,
          "internalType": "address",
          "name": "walletAddress",
          "type": "address"
        },
        {
          "indexed": false,
          "internalType": "string",
          "name": "licenseNumber",
          "type": "string"
        }
      ],
      "name": "DoctorRegistered",
      "type": "event"
    },
    {
      "inputs": [
        {
          "internalType": "uint256",
          "name": "",
          "type": "uint256"
        }
      ],
      "name": "doctorAddresses",
      "outputs": [
        {
          "internalType": "address",
          "name": "",
          "type": "address"
        }
      ],
      "stateMutability": "view",
      "type": "function"
    },
    {
      "inputs": [
        {
          "internalType": "address",
          "name": "",
          "type": "address"
        }
      ],
      "name": "doctors",
      "outputs": [
        {
          "internalType": "address",
          "name": "walletAddress",
          "type": "address"
        },
        {
          "internalType": "string",
          "name": "licenseNumber",
          "type": "string"
        },
        {
          "internalType": "string",
          "name": "specialty",
          "type": "string"
        },
        {
          "internalType": "bool",
          "name": "isRegistered",
          "type": "bool"
        }
      ],
      "stateMutability": "view",
      "type": "function"
    },
    {
      "inputs": [
        {
          "internalType": "address",
          "name": "_walletAddress",
          "type": "address"
        },
        {
          "internalType": "string",
          "name": "_licenseNumber",
          "type": "string"
        },
        {
          "internalType": "string",
          "name": "_specialty",
          "type": "string"
        }
      ],
      "name": "registerDoctor",
      "outputs": [],
      "stateMutability": "nonpayable",
      "type": "function"
    },
    {
      "inputs": [
        {
          "internalType": "address",
          "name": "_walletAddress",
          "type": "address"
        }
      ],
      "name": "getDoctor",
      "outputs": [
        {
          "components": [
            {
              "internalType": "address",
              "name": "walletAddress",
              "type": "address"
            },
            {
              "internalType": "string",
              "name": "licenseNumber",
              "type": "string"
            },
            {
              "internalType": "string",
              "name": "specialty",
              "type": "string"
            },
            {
              "internalType": "bool",
              "name": "isRegistered",
              "type": "bool"
            }
          ],
          "internalType": "struct DoctorRegistry.Doctor",
          "name": "",
          "type": "tuple"
        }
      ],
      "stateMutability": "view",
      "type": "function"
    }
  ],
  "bytecode": "0x608060405234801561001057600080fd5b50610974806100206000396000f3fe608060405234801561001057600080fd5b506004361061004c5760003560e01c80632f04e064146100515780633ba51e7c1461007a57806353d08ef4146100a5578063a9583c22146100ba575b600080fd5b61006461005f36600461059c565b6100dd565b6040516100719190610604565b60405180910390f35b61008d610088366004610668565b61027f565b6040516001600160a01b039091168152602001610071565b6100b86100b3366004610724565b6102a9565b005b6100cd6100c836600461059c565b61043a565b6040516100719493929190610798565b610113604051806080016040528060006001600160a01b0316815260200160608152602001606081526020016000151581525090565b6001600160a01b03808316600090815260208181526040918290208251608081019093528054909316825260018301805492939291840191610154906107e2565b80601f0160208091040260200160405190810160405280929190818152602001828054610180906107e2565b80156101cd5780601f106101a2576101008083540402835291602001916101cd565b820191906000526020600020905b8154815290600101906020018083116101b057829003601f168201915b505050505081526020016002820180546101e6906107e2565b80601f0160208091040260200160405190810160405280929190818152602001828054610212906107e2565b801561025f5780601f106102345761010080835404028352916020019161025f565b820191906000526020600020905b81548152906001019060200180831161024257829003601f168201915b50505091835250506003919091015460ff16151560209091015292915050565b6001818154811061028f57600080fd5b6000918252602090912001546001600160a01b0316905081565b6001600160a01b03831660009081526020819052604090206003015460ff16156103195760405162461bcd60e51b815260206004820152601960248201527f446f63746f7220616c7265616479207265676973746572656400000000000000604482015260640160405180910390fd5b604080516080810182526001600160a01b03858116808352602080840187815284860187905260016060860181905260009384529183905294909120835181546001600160a01b03191693169290921782559251919290919082019061037f908261086b565b5060408201516002820190610394908261086b565b50606091909101516003909101805460ff19169115159190911790556001805480820182556000919091527fb10e2d527612073b26eecdfd717e6a320cf44b4afac2b0732d9fcbe2b7fa0cf60180546001600160a01b0319166001600160a01b0385169081179091556040517f20481b8112b5bf4734f45a473c373db9df6a79ce946cdc0e7dbc22b4f7d7f9869061042d90859061092b565b60405180910390a2505050565b600060208190529081526040902080546001820180546001600160a01b039092169291610466906107e2565b80601f0160208091040260200160405190810160405280929190818152602001828054610492906107e2565b80156104df5780601f106104b4576101008083540402835291602001916104df565b820191906000526020600020905b8154815290600101906020018083116104c257829003601f168201915b5050505050908060020180546104f4906107e2565b80601f0160208091040260200160405190810160405280929190818152602001828054610520906107e2565b801561056d5780601f106105425761010080835404028352916020019161056d565b820191906000526020600020905b81548152906001019060200180831161055057829003601f168201915b5050506003909301549192505060ff1684565b80356001600160a01b038116811461059757600080fd5b919050565b6000602082840312156105ae57600080fd5b6105b782610580565b9392505050565b6000815180845260005b818110156105e4576020818501810151868301820152016105c8565b506000602082860101526020601f19601f83011685010191505092915050565b602080825282516001600160a01b0316828201528201516080604083015260009061063260a08401826105be565b90506040840151601f1984830301606085015261064f82826105be565b9150506060840151151560808401528091505092915050565b60006020828403121561067a57600080fd5b5035919050565b634e487b7160e01b600052604160045260246000fd5b600082601f8301126106a857600080fd5b813567ffffffffffffffff808211156106c3576106c3610681565b604051601f8301601f19908116603f011681019082821181831017156106eb576106eb610681565b8160405283815286602085880101111561070457600080fd5b836020870160208301376000602085830101528094505050505092915050565b60008060006060848603121561073957600080fd5b61074284610580565b9250602084013567ffffffffffffffff8082111561075f57600080fd5b61076b87838801610697565b9350604086013591508082111561078157600080fd5b5061078e86828701610697565b9150509250925092565b6001600160a01b03851681526080602082018190526000906107bc908301866105be565b82810360408401526107ce81866105be565b915050821515606083015295945050505050565b600181811c908216806107f657607f821691505b60208210810361081657634e487b7160e01b600052602260045260246000fd5b50919050565b601f82111561086657600081815260208120601f850160051c810160208610156108435750805b601f850160051c820191505b818110156108625782815560010161084f565b5050505b505050565b815167ffffffffffffffff81111561088557610885610681565b6108998161089384546107e2565b8461081c565b602080601f8311600181146108ce57600084156108b65750858301515b600019600386901b1c1916600185901b178555610862565b600085815260208120601f198616915b828110156108fd578886015182559484019460019091019084016108de565b508582101561091b5787850151600019600388901b60f8161c191681555b5050505050600190811b01905550565b6020815260006105b760208301846105be56fea26469706673582212207f5c8404939e984eedae76fbc4880a863813e3e1cdf0b7da17342f70c40a514b64736f6c63430008130033",
  "immutableReferences": {},
  "source": "//\r\npragma solidity ^0.8.0;\r\n\r\ncontract DoctorRegistry {\r\n    struct Doctor {\r\n        address walletAddress;\r\n        string licenseNumber;\r\n        string specialty;\r\n        bool isRegistered;\r\n    }\r\n\r\n    mapping(address => Doctor) public doctors;\r\n    address[] public doctorAddresses;\r\n\r\n    event DoctorRegistered(address indexed walletAddress, string licenseNumber);\r\n\r\n    function registerDoctor(\r\n        address _walletAddress,\r\n        string memory _licenseNumber,\r\n        string memory _specialty\r\n    ) external {\r\n        require(!doctors[_walletAddress].isRegistered, \"Doctor already registered\");\r\n        \r\n        doctors[_walletAddress] = Doctor({\r\n            walletAddress: _walletAddress,\r\n            licenseNumber: _licenseNumber,\r\n            specialty: _specialty,\r\n            isRegistered: true\r\n        });\r\n        \r\n        doctorAddresses.push(_walletAddress);\r\n        emit DoctorRegistered(_walletAddress, _licenseNumber);\r\n    }\r\n\r\n    function getDoctor(address _walletAddress) external view returns (Doctor memory) {\r\n        return doctors[_walletAddress];\r\n    }\r\n}",
  "sourcePath": "C:\\Users\\rehan\\Downloads\\GIT NEw\\FINAL 2\\hospital-manage\\contracts\\DoctorRegistry.sol",
  "compiler": {
    "name": "solc",
    "version": "0.8.19+commit.7dd6d404.Emscripten.clang"
  },
  "schemaVersion": "3.4.16",
  "updatedAt": "2025-03-31T20:18:37.538Z",
  "devdoc": {
    "kind": "dev",
    "methods": {},
    "version": 1
  },
  "userdoc": {
    "kind": "user",
    "methods": {},
    "version": 1
  }
}