{
  "contractName": "HospitalManagement",
  "abi": [
    {
      "inputs": [],
      "stateMutability": "nonpayable",
      "type": "constructor"
    },
    {
      "anonymous": false,
      "inputs": [
        {
          "indexed": true,
          "internalType": "address",
          "name": "doctorAddress",
          "type": "address"
        },
        {
          "indexed": false,
          "internalType": "string",
          "name": "name",
          "type": "string"
        },
        {
          "indexed": false,
          "internalType": "string",
          "name": "specialty",
          "type": "string"
        }
      ],
      "name": "DoctorAdded",
      "type": "event"
    },
    {
      "anonymous": false,
      "inputs": [
        {
          "indexed": true,
          "internalType": "address",
          "name": "patientAddress",
          "type": "address"
        },
        {
          "indexed": true,
          "internalType": "address",
          "name": "doctorAddress",
          "type": "address"
        }
      ],
      "name": "DoctorAuthorized",
      "type": "event"
    },
    {
      "anonymous": false,
      "inputs": [
        {
          "indexed": true,
          "internalType": "address",
          "name": "patientAddress",
          "type": "address"
        },
        {
          "indexed": true,
          "internalType": "address",
          "name": "doctorAddress",
          "type": "address"
        }
      ],
      "name": "DoctorDeauthorized",
      "type": "event"
    },
    {
      "anonymous": false,
      "inputs": [
        {
          "indexed": true,
          "internalType": "address",
          "name": "doctorAddress",
          "type": "address"
        }
      ],
      "name": "DoctorRemoved",
      "type": "event"
    },
    {
      "anonymous": false,
      "inputs": [
        {
          "indexed": true,
          "internalType": "address",
          "name": "patientAddress",
          "type": "address"
        },
        {
          "indexed": false,
          "internalType": "uint256",
          "name": "recordId",
          "type": "uint256"
        },
        {
          "indexed": false,
          "internalType": "bytes32",
          "name": "recordHash",
          "type": "bytes32"
        }
      ],
      "name": "MedicalRecordAdded",
      "type": "event"
    },
    {
      "anonymous": false,
      "inputs": [
        {
          "indexed": true,
          "internalType": "address",
          "name": "patientAddress",
          "type": "address"
        },
        {
          "indexed": false,
          "internalType": "string",
          "name": "name",
          "type": "string"
        }
      ],
      "name": "PatientRegistered",
      "type": "event"
    },
    {
      "inputs": [
        {
          "internalType": "address",
          "name": "",
          "type": "address"
        }
      ],
      "name": "doctors",
      "outputs": [
        {
          "internalType": "string",
          "name": "name",
          "type": "string"
        },
        {
          "internalType": "string",
          "name": "specialty",
          "type": "string"
        },
        {
          "internalType": "string",
          "name": "licenseNumber",
          "type": "string"
        },
        {
          "internalType": "string",
          "name": "department",
          "type": "string"
        },
        {
          "internalType": "string",
          "name": "contactInfo",
          "type": "string"
        },
        {
          "internalType": "bool",
          "name": "isActive",
          "type": "bool"
        },
        {
          "internalType": "uint256",
          "name": "dateAdded",
          "type": "uint256"
        }
      ],
      "stateMutability": "view",
      "type": "function"
    },
    {
      "inputs": [
        {
          "internalType": "address",
          "name": "",
          "type": "address"
        }
      ],
      "name": "isAdmin",
      "outputs": [
        {
          "internalType": "bool",
          "name": "",
          "type": "bool"
        }
      ],
      "stateMutability": "view",
      "type": "function"
    },
    {
      "inputs": [
        {
          "internalType": "address",
          "name": "",
          "type": "address"
        }
      ],
      "name": "isDoctor",
      "outputs": [
        {
          "internalType": "bool",
          "name": "",
          "type": "bool"
        }
      ],
      "stateMutability": "view",
      "type": "function"
    },
    {
      "inputs": [
        {
          "internalType": "address",
          "name": "",
          "type": "address"
        }
      ],
      "name": "isPatient",
      "outputs": [
        {
          "internalType": "bool",
          "name": "",
          "type": "bool"
        }
      ],
      "stateMutability": "view",
      "type": "function"
    },
    {
      "inputs": [],
      "name": "owner",
      "outputs": [
        {
          "internalType": "address",
          "name": "",
          "type": "address"
        }
      ],
      "stateMutability": "view",
      "type": "function"
    },
    {
      "inputs": [
        {
          "internalType": "address",
          "name": "",
          "type": "address"
        }
      ],
      "name": "patientRecordCount",
      "outputs": [
        {
          "internalType": "uint256",
          "name": "",
          "type": "uint256"
        }
      ],
      "stateMutability": "view",
      "type": "function"
    },
    {
      "inputs": [
        {
          "internalType": "address",
          "name": "",
          "type": "address"
        },
        {
          "internalType": "uint256",
          "name": "",
          "type": "uint256"
        }
      ],
      "name": "patientRecords",
      "outputs": [
        {
          "internalType": "uint256",
          "name": "patientId",
          "type": "uint256"
        },
        {
          "internalType": "address",
          "name": "doctorAddress",
          "type": "address"
        },
        {
          "internalType": "string",
          "name": "recordType",
          "type": "string"
        },
        {
          "internalType": "string",
          "name": "diagnosis",
          "type": "string"
        },
        {
          "internalType": "string",
          "name": "symptoms",
          "type": "string"
        },
        {
          "internalType": "string",
          "name": "treatment",
          "type": "string"
        },
        {
          "internalType": "string",
          "name": "medications",
          "type": "string"
        },
        {
          "internalType": "string",
          "name": "notes",
          "type": "string"
        },
        {
          "internalType": "uint256",
          "name": "timestamp",
          "type": "uint256"
        },
        {
          "internalType": "bytes32",
          "name": "recordHash",
          "type": "bytes32"
        }
      ],
      "stateMutability": "view",
      "type": "function"
    },
    {
      "inputs": [
        {
          "internalType": "address",
          "name": "",
          "type": "address"
        }
      ],
      "name": "patients",
      "outputs": [
        {
          "internalType": "string",
          "name": "name",
          "type": "string"
        },
        {
          "internalType": "uint256",
          "name": "age",
          "type": "uint256"
        },
        {
          "internalType": "string",
          "name": "gender",
          "type": "string"
        },
        {
          "internalType": "bool",
          "name": "isRegistered",
          "type": "bool"
        },
        {
          "internalType": "uint256",
          "name": "dateRegistered",
          "type": "uint256"
        }
      ],
      "stateMutability": "view",
      "type": "function"
    },
    {
      "inputs": [
        {
          "internalType": "address",
          "name": "adminAddress",
          "type": "address"
        }
      ],
      "name": "addAdmin",
      "outputs": [],
      "stateMutability": "nonpayable",
      "type": "function"
    },
    {
      "inputs": [
        {
          "internalType": "address",
          "name": "adminAddress",
          "type": "address"
        }
      ],
      "name": "removeAdmin",
      "outputs": [],
      "stateMutability": "nonpayable",
      "type": "function"
    },
    {
      "inputs": [
        {
          "internalType": "address",
          "name": "doctorAddress",
          "type": "address"
        },
        {
          "internalType": "string",
          "name": "name",
          "type": "string"
        },
        {
          "internalType": "string",
          "name": "specialty",
          "type": "string"
        },
        {
          "internalType": "string",
          "name": "licenseNumber",
          "type": "string"
        },
        {
          "internalType": "string",
          "name": "department",
          "type": "string"
        },
        {
          "internalType": "string",
          "name": "contactInfo",
          "type": "string"
        }
      ],
      "name": "addDoctor",
      "outputs": [],
      "stateMutability": "nonpayable",
      "type": "function"
    },
    {
      "inputs": [
        {
          "internalType": "address",
          "name": "doctorAddress",
          "type": "address"
        },
        {
          "internalType": "string",
          "name": "name",
          "type": "string"
        },
        {
          "internalType": "string",
          "name": "specialty",
          "type": "string"
        },
        {
          "internalType": "string",
          "name": "licenseNumber",
          "type": "string"
        },
        {
          "internalType": "string",
          "name": "department",
          "type": "string"
        },
        {
          "internalType": "string",
          "name": "contactInfo",
          "type": "string"
        },
        {
          "internalType": "bool",
          "name": "isActive",
          "type": "bool"
        }
      ],
      "name": "updateDoctor",
      "outputs": [],
      "stateMutability": "nonpayable",
      "type": "function"
    },
    {
      "inputs": [
        {
          "internalType": "address",
          "name": "doctorAddress",
          "type": "address"
        }
      ],
      "name": "removeDoctor",
      "outputs": [],
      "stateMutability": "nonpayable",
      "type": "function"
    },
    {
      "inputs": [
        {
          "internalType": "string",
          "name": "name",
          "type": "string"
        },
        {
          "internalType": "uint256",
          "name": "age",
          "type": "uint256"
        },
        {
          "internalType": "string",
          "name": "gender",
          "type": "string"
        }
      ],
      "name": "registerPatient",
      "outputs": [],
      "stateMutability": "nonpayable",
      "type": "function"
    },
    {
      "inputs": [
        {
          "internalType": "address",
          "name": "doctorAddress",
          "type": "address"
        }
      ],
      "name": "authorizeDoctor",
      "outputs": [],
      "stateMutability": "nonpayable",
      "type": "function"
    },
    {
      "inputs": [
        {
          "internalType": "address",
          "name": "doctorAddress",
          "type": "address"
        }
      ],
      "name": "deauthorizeDoctor",
      "outputs": [],
      "stateMutability": "nonpayable",
      "type": "function"
    },
    {
      "inputs": [
        {
          "internalType": "address",
          "name": "patientAddress",
          "type": "address"
        },
        {
          "internalType": "address",
          "name": "doctorAddress",
          "type": "address"
        }
      ],
      "name": "isAuthorizedDoctor",
      "outputs": [
        {
          "internalType": "bool",
          "name": "",
          "type": "bool"
        }
      ],
      "stateMutability": "view",
      "type": "function"
    },
    {
      "inputs": [
        {
          "internalType": "address",
          "name": "patientAddress",
          "type": "address"
        },
        {
          "internalType": "string",
          "name": "recordType",
          "type": "string"
        },
        {
          "internalType": "string",
          "name": "diagnosis",
          "type": "string"
        },
        {
          "internalType": "string",
          "name": "symptoms",
          "type": "string"
        },
        {
          "internalType": "string",
          "name": "treatment",
          "type": "string"
        },
        {
          "internalType": "string",
          "name": "medications",
          "type": "string"
        },
        {
          "internalType": "string",
          "name": "notes",
          "type": "string"
        }
      ],
      "name": "addMedicalRecord",
      "outputs": [],
      "stateMutability": "nonpayable",
      "type": "function"
    },
    {
      "inputs": [
        {
          "internalType": "address",
          "name": "patientAddress",
          "type": "address"
        },
        {
          "internalType": "uint256",
          "name": "recordId",
          "type": "uint256"
        }
      ],
      "name": "getMedicalRecord",
      "outputs": [
        {
          "internalType": "uint256",
          "name": "patientId",
          "type": "uint256"
        },
        {
          "internalType": "address",
          "name": "doctorAddress",
          "type": "address"
        },
        {
          "internalType": "string",
          "name": "recordType",
          "type": "string"
        },
        {
          "internalType": "string",
          "name": "diagnosis",
          "type": "string"
        },
        {
          "internalType": "string",
          "name": "symptoms",
          "type": "string"
        },
        {
          "internalType": "string",
          "name": "treatment",
          "type": "string"
        },
        {
          "internalType": "string",
          "name": "medications",
          "type": "string"
        },
        {
          "internalType": "string",
          "name": "notes",
          "type": "string"
        },
        {
          "internalType": "uint256",
          "name": "timestamp",
          "type": "uint256"
        },
        {
          "internalType": "bytes32",
          "name": "recordHash",
          "type": "bytes32"
        }
      ],
      "stateMutability": "view",
      "type": "function"
    },
    {
      "inputs": [
        {
          "internalType": "address",
          "name": "patientAddress",
          "type": "address"
        }
      ],
      "name": "getPatientRecordCount",
      "outputs": [
        {
          "internalType": "uint256",
          "name": "",
          "type": "uint256"
        }
      ],
      "stateMutability": "view",
      "type": "function"
    },
    {
      "inputs": [
        {
          "internalType": "address",
          "name": "doctorAddress",
          "type": "address"
        }
      ],
      "name": "getDoctorInfo",
      "outputs": [
        {
          "internalType": "string",
          "name": "name",
          "type": "string"
        },
        {
          "internalType": "string",
          "name": "specialty",
          "type": "string"
        },
        {
          "internalType": "string",
          "name": "department",
          "type": "string"
        },
        {
          "internalType": "bool",
          "name": "isActive",
          "type": "bool"
        },
        {
          "internalType": "uint256",
          "name": "dateAdded",
          "type": "uint256"
        }
      ],
      "stateMutability": "view",
      "type": "function"
    },
    {
      "inputs": [
        {
          "internalType": "address",
          "name": "patientAddress",
          "type": "address"
        }
      ],
      "name": "getPatientInfo",
      "outputs": [
        {
          "internalType": "string",
          "name": "name",
          "type": "string"
        },
        {
          "internalType": "uint256",
          "name": "age",
          "type": "uint256"
        },
        {
          "internalType": "string",
          "name": "gender",
          "type": "string"
        },
        {
          "internalType": "uint256",
          "name": "recordCount",
          "type": "uint256"
        },
        {
          "internalType": "uint256",
          "name": "dateRegistered",
          "type": "uint256"
        }
      ],
      "stateMutability": "view",
      "type": "function"
    },
    {
      "inputs": [
        {
          "internalType": "address",
          "name": "patientAddress",
          "type": "address"
        }
      ],
      "name": "getAuthorizedDoctors",
      "outputs": [
        {
          "internalType": "address[]",
          "name": "",
          "type": "address[]"
        }
      ],
      "stateMutability": "view",
      "type": "function"
    },
    {
      "inputs": [
        {
          "internalType": "address",
          "name": "patientAddress",
          "type": "address"
        },
        {
          "internalType": "uint256",
          "name": "recordId",
          "type": "uint256"
        },
        {
          "internalType": "bytes32",
          "name": "hash",
          "type": "bytes32"
        }
      ],
      "name": "verifyRecordHash",
      "outputs": [
        {
          "internalType": "bool",
          "name": "",
          "type": "bool"
        }
      ],
      "stateMutability": "view",
      "type": "function"
    }
  ],
  "bytecode": "0x608060405234801561001057600080fd5b50600080546001600160a01b0319163390811782558152600360205260409020805460ff191660011790556131d28061004a6000396000f3fe608060405234801561001057600080fd5b50600436106101585760003560e01c80636bc75e24116100c357806398fc90e91161007c57806398fc90e91461036a578063996440c61461037d578063a9583c22146103a0578063bd1e788c146103c6578063cbf8a64b146103d9578063eea9c37b146103f957600080fd5b80636bc75e24146102a95780636f12fc35146102bc57806370480275146102e05780638da5cb5b146102f35780638f9c79ed1461031e57806394f0df611461034157600080fd5b80631d14c36e116101155780631d14c36e1461021657806324d7806c146102295780634b4261781461024c57806358c9202c146102705780635ab361ef146102835780635dfd68a51461029657600080fd5b80630869cfbc1461015d5780630a65e01d1461018a5780630a9682ad146101b85780630db258ee146101cb5780631128c9ea146101ee5780631785f53c14610203575b600080fd5b61017061016b3660046126a4565b61040c565b604051610181959493929190612716565b60405180910390f35b6101aa6101983660046126a4565b60076020526000908152604090205481565b604051908152602001610181565b6101aa6101c63660046126a4565b61054e565b6101de6101d9366004612756565b6105e3565b6040519015158152602001610181565b6102016101fc36600461282c565b61066f565b005b6102016102113660046126a4565b610855565b61020161022436600461290d565b6108fe565b6101de6102373660046126a4565b60036020526000908152604090205460ff1681565b61025f61025a3660046126a4565b610a6a565b60405161018195949392919061297a565b61020161027e3660046126a4565b610c9a565b6102016102913660046126a4565b610e57565b6101de6102a43660046129ba565b611029565b6102016102b73660046129ed565b6110af565b6102cf6102ca3660046126a4565b611417565b604051610181959493929190612af4565b6102016102ee3660046126a4565b611692565b600054610306906001600160a01b031681565b6040516001600160a01b039091168152602001610181565b6101de61032c3660046126a4565b60056020526000908152604090205460ff1681565b61035461034f366004612b2d565b6116e0565b6040516101819a99989796959493929190612b57565b6102016103783660046126a4565b611a72565b6101de61038b3660046126a4565b60026020526000908152604090205460ff1681565b6103b36103ae3660046126a4565b611b5d565b6040516101819796959493929190612c02565b6102016103d4366004612c8a565b611e43565b6103ec6103e73660046126a4565b612017565b6040516101819190612d7d565b610354610407366004612b2d565b612155565b60046020526000908152604090208054819061042790612dca565b80601f016020809104026020016040519081016040528092919081815260200182805461045390612dca565b80156104a05780601f10610475576101008083540402835291602001916104a0565b820191906000526020600020905b81548152906001019060200180831161048357829003601f168201915b5050505050908060010154908060020180546104bb90612dca565b80601f01602080910402602001604051908101604052809291908181526020018280546104e790612dca565b80156105345780601f1061050957610100808354040283529160200191610534565b820191906000526020600020905b81548152906001019060200180831161051757829003601f168201915b505050506004830154600590930154919260ff1691905085565b600081336001600160a01b038216148061057257506000546001600160a01b031633145b8061058c57503360009081526003602052604090205460ff165b8061059c575061059c8133611029565b6105c15760405162461bcd60e51b81526004016105b890612dfe565b60405180910390fd5b6001600160a01b03831660009081526007602052604090205491505b50919050565b6001600160a01b03831660009081526007602052604081205483106106425760405162461bcd60e51b8152602060048201526015602482015274149958dbdc9908191bd95cc81b9bdd08195e1a5cdd605a1b60448201526064016105b8565b506001600160a01b0392909216600090815260066020908152604080832093835292905220600901541490565b3360009081526003602052604090205460ff168061069757506000546001600160a01b031633145b6106b35760405162461bcd60e51b81526004016105b890612e4d565b6001600160a01b03861660009081526002602052604090205460ff161561071c5760405162461bcd60e51b815260206004820152601960248201527f446f63746f7220616c726561647920726567697374657265640000000000000060448201526064016105b8565b6040805160e08101825286815260208082018790528183018690526060820185905260808201849052600160a083018190524260c08401526001600160a01b038a166000908152915291909120815181906107779082612edd565b506020820151600182019061078c9082612edd565b50604082015160028201906107a19082612edd565b50606082015160038201906107b69082612edd565b50608082015160048201906107cb9082612edd565b5060a082015160058201805491151560ff1992831617905560c0909201516006909101556001600160a01b03871660008181526002602052604090819020805490931660011790925590517f9388661dcd7dc6cff9b4e22ab9459ac0a2682f86cb52fc7a669a6e7f062bce4c906108459088908890612f9d565b60405180910390a2505050505050565b6000546001600160a01b0316331461087f5760405162461bcd60e51b81526004016105b890612fcb565b6000546001600160a01b03908116908216036108dd5760405162461bcd60e51b815260206004820152601c60248201527f43616e6e6f742072656d6f7665206f776e65722061732061646d696e0000000060448201526064016105b8565b6001600160a01b03166000908152600360205260409020805460ff19169055565b3360009081526005602052604090205460ff161561095e5760405162461bcd60e51b815260206004820152601a60248201527f50617469656e7420616c7265616479207265676973746572656400000000000060448201526064016105b8565b60408051600080825260e08201835260208083018781528385018790526060840186905260808401849052600160a08501524260c08501523383526004909152929020825191929181906109b29082612edd565b5060208201516001820155604082015160028201906109d19082612edd565b50606082015180516109ed91600384019160209091019061260e565b50608082015160048201805491151560ff1992831617905560a0909201516005918201553360008181526020929092526040918290208054909316600117909255517fc85b128388b9c331a2a5485dce4cd0f3db9f7c279d327ce95d6d39d6c94644c790610a5c90879061300c565b60405180910390a250505050565b6060600081818085336001600160a01b0382161480610a9357506000546001600160a01b031633145b80610aad57503360009081526003602052604090205460ff165b80610abd5750610abd8133611029565b610ad95760405162461bcd60e51b81526004016105b890612dfe565b6001600160a01b03871660009081526005602052604090205460ff16610b355760405162461bcd60e51b815260206004820152601160248201527014185d1a595b9d081b9bdd08199bdd5b99607a1b60448201526064016105b8565b6001600160a01b03871660009081526004602090815260408083206001810154600790935292205460058301548354849392600285019290918590610b7990612dca565b80601f0160208091040260200160405190810160405280929190818152602001828054610ba590612dca565b8015610bf25780601f10610bc757610100808354040283529160200191610bf2565b820191906000526020600020905b815481529060010190602001808311610bd557829003601f168201915b50505050509450828054610c0590612dca565b80601f0160208091040260200160405190810160405280929190818152602001828054610c3190612dca565b8015610c7e5780601f10610c5357610100808354040283529160200191610c7e565b820191906000526020600020905b815481529060010190602001808311610c6157829003601f168201915b5050505050925096509650965096509650505091939590929450565b3360009081526005602052604090205460ff16610cc95760405162461bcd60e51b81526004016105b89061301f565b6001600160a01b03811660009081526002602052604090205460ff16610d315760405162461bcd60e51b815260206004820152601760248201527f4e6f742061207265676973746572656420646f63746f7200000000000000000060448201526064016105b8565b6001600160a01b03811660009081526001602052604090206005015460ff16610d935760405162461bcd60e51b8152602060048201526014602482015273446f63746f72206973206e6f742061637469766560601b60448201526064016105b8565b610d9d3382611029565b15610dea5760405162461bcd60e51b815260206004820152601960248201527f446f63746f7220616c726561647920617574686f72697a65640000000000000060448201526064016105b8565b336000818152600460209081526040808320600301805460018101825590845291832090910180546001600160a01b0319166001600160a01b03861690811790915590519092917fc3255872421c54a1c27c56c4517b663cfbf7024ebaf3b96a1b3edd4f1a41c39e91a350565b3360009081526005602052604090205460ff16610e865760405162461bcd60e51b81526004016105b89061301f565b610e903382611029565b610ed45760405162461bcd60e51b8152602060048201526015602482015274111bd8dd1bdc881b9bdd08185d5d1a1bdc9a5e9959605a1b60448201526064016105b8565b336000908152600460205260408120600301905b8154811015610fee57826001600160a01b0316828281548110610f0d57610f0d61306e565b6000918252602090912001546001600160a01b031603610fdc5781548290610f379060019061309a565b81548110610f4757610f4761306e565b9060005260206000200160009054906101000a90046001600160a01b0316828281548110610f7757610f7761306e565b9060005260206000200160006101000a8154816001600160a01b0302191690836001600160a01b0316021790555081805480610fb557610fb56130ad565b600082815260209020810160001990810180546001600160a01b0319169055019055610fee565b80610fe6816130c3565b915050610ee8565b506040516001600160a01b0383169033907f4d64b4a5a08a6d4580be320b44d7cd018c3ad7e46fc24898a46ebe6a19c9b1ca90600090a35050565b6001600160a01b0382166000908152600460205260408120600301815b81548110156110a257836001600160a01b031682828154811061106b5761106b61306e565b6000918252602090912001546001600160a01b031603611090576001925050506110a9565b8061109a816130c3565b915050611046565b5060009150505b92915050565b3360009081526002602052604090205460ff166111255760405162461bcd60e51b815260206004820152602e60248201527f4f6e6c79207265676973746572656420646f63746f72732063616e2063616c6c60448201526d103a3434b990333ab731ba34b7b760911b60648201526084016105b8565b86336001600160a01b038216148061114757506000546001600160a01b031633145b8061116157503360009081526003602052604090205460ff165b8061117157506111718133611029565b61118d5760405162461bcd60e51b81526004016105b890612dfe565b6001600160a01b03881660009081526005602052604090205460ff166111ee5760405162461bcd60e51b815260206004820152601660248201527514185d1a595b9d081b9bdd081c9959da5cdd195c995960521b60448201526064016105b8565b6001600160a01b038816600090815260076020908152604080832054905190929161122d918c9133918d918d918d918d918d918d9142918d91016130dc565b6040516020818303038152906040528051906020012090506000604051806101400160405280848152602001336001600160a01b031681526020018b81526020018a815260200189815260200188815260200187815260200186815260200142815260200183815250905080600660008d6001600160a01b03166001600160a01b0316815260200190815260200160002060008581526020019081526020016000206000820151816000015560208201518160010160006101000a8154816001600160a01b0302191690836001600160a01b03160217905550604082015181600201908161131b9190612edd565b50606082015160038201906113309082612edd565b50608082015160048201906113459082612edd565b5060a0820151600582019061135a9082612edd565b5060c0820151600682019061136f9082612edd565b5060e082015160078201906113849082612edd565b506101008201516008820155610120909101516009909101556001600160a01b038b1660009081526007602052604081208054916113c1836130c3565b909155505060408051848152602081018490526001600160a01b038d16917f211ca7b674eb2b6ffef28fa5d7cd4af4025d5d7d4f1ca693dc3ba259ddb53303910160405180910390a25050505050505050505050565b6001600160a01b0381166000908152600260205260408120546060918291829190819060ff168061146257506001600160a01b03861660009081526001602052604090206006015415155b6114a15760405162461bcd60e51b815260206004820152601060248201526f111bd8dd1bdc881b9bdd08199bdd5b9960821b60448201526064016105b8565b6001600160a01b03861660009081526001602081905260409091206005810154600682015482549293849390840192600385019260ff9091169185906114e690612dca565b80601f016020809104026020016040519081016040528092919081815260200182805461151290612dca565b801561155f5780601f106115345761010080835404028352916020019161155f565b820191906000526020600020905b81548152906001019060200180831161154257829003601f168201915b5050505050945083805461157290612dca565b80601f016020809104026020016040519081016040528092919081815260200182805461159e90612dca565b80156115eb5780601f106115c0576101008083540402835291602001916115eb565b820191906000526020600020905b8154815290600101906020018083116115ce57829003601f168201915b505050505093508280546115fe90612dca565b80601f016020809104026020016040519081016040528092919081815260200182805461162a90612dca565b80156116775780601f1061164c57610100808354040283529160200191611677565b820191906000526020600020905b81548152906001019060200180831161165a57829003601f168201915b50505050509250955095509550955095505091939590929450565b6000546001600160a01b031633146116bc5760405162461bcd60e51b81526004016105b890612fcb565b6001600160a01b03166000908152600360205260409020805460ff19166001179055565b600660209081526000928352604080842090915290825290208054600182015460028301805492936001600160a01b039092169261171d90612dca565b80601f016020809104026020016040519081016040528092919081815260200182805461174990612dca565b80156117965780601f1061176b57610100808354040283529160200191611796565b820191906000526020600020905b81548152906001019060200180831161177957829003601f168201915b5050505050908060030180546117ab90612dca565b80601f01602080910402602001604051908101604052809291908181526020018280546117d790612dca565b80156118245780601f106117f957610100808354040283529160200191611824565b820191906000526020600020905b81548152906001019060200180831161180757829003601f168201915b50505050509080600401805461183990612dca565b80601f016020809104026020016040519081016040528092919081815260200182805461186590612dca565b80156118b25780601f10611887576101008083540402835291602001916118b2565b820191906000526020600020905b81548152906001019060200180831161189557829003601f168201915b5050505050908060050180546118c790612dca565b80601f01602080910402602001604051908101604052809291908181526020018280546118f390612dca565b80156119405780601f1061191557610100808354040283529160200191611940565b820191906000526020600020905b81548152906001019060200180831161192357829003601f168201915b50505050509080600601805461195590612dca565b80601f016020809104026020016040519081016040528092919081815260200182805461198190612dca565b80156119ce5780601f106119a3576101008083540402835291602001916119ce565b820191906000526020600020905b8154815290600101906020018083116119b157829003601f168201915b5050505050908060070180546119e390612dca565b80601f0160208091040260200160405190810160405280929190818152602001828054611a0f90612dca565b8015611a5c5780601f10611a3157610100808354040283529160200191611a5c565b820191906000526020600020905b815481529060010190602001808311611a3f57829003601f168201915b505050505090806008015490806009015490508a565b6000546001600160a01b03163314611a9c5760405162461bcd60e51b81526004016105b890612fcb565b6001600160a01b03811660009081526002602052604090205460ff16611afc5760405162461bcd60e51b8152602060048201526015602482015274111bd8dd1bdc881b9bdd081c9959da5cdd195c9959605a1b60448201526064016105b8565b6001600160a01b0381166000818152600160209081526040808320600501805460ff1990811690915560029092528083208054909216909155517f493d7cf6a7c880406a55654d6727464ea088bd01d40498e1987a327e68961ab89190a250565b600160205260009081526040902080548190611b7890612dca565b80601f0160208091040260200160405190810160405280929190818152602001828054611ba490612dca565b8015611bf15780601f10611bc657610100808354040283529160200191611bf1565b820191906000526020600020905b815481529060010190602001808311611bd457829003601f168201915b505050505090806001018054611c0690612dca565b80601f0160208091040260200160405190810160405280929190818152602001828054611c3290612dca565b8015611c7f5780601f10611c5457610100808354040283529160200191611c7f565b820191906000526020600020905b815481529060010190602001808311611c6257829003601f168201915b505050505090806002018054611c9490612dca565b80601f0160208091040260200160405190810160405280929190818152602001828054611cc090612dca565b8015611d0d5780601f10611ce257610100808354040283529160200191611d0d565b820191906000526020600020905b815481529060010190602001808311611cf057829003601f168201915b505050505090806003018054611d2290612dca565b80601f0160208091040260200160405190810160405280929190818152602001828054611d4e90612dca565b8015611d9b5780601f10611d7057610100808354040283529160200191611d9b565b820191906000526020600020905b815481529060010190602001808311611d7e57829003601f168201915b505050505090806004018054611db090612dca565b80601f0160208091040260200160405190810160405280929190818152602001828054611ddc90612dca565b8015611e295780601f10611dfe57610100808354040283529160200191611e29565b820191906000526020600020905b815481529060010190602001808311611e0c57829003601f168201915b505050506005830154600690930154919260ff1691905087565b3360009081526003602052604090205460ff1680611e6b57506000546001600160a01b031633145b611e875760405162461bcd60e51b81526004016105b890612e4d565b6001600160a01b03871660009081526002602052604090205460ff16611ee75760405162461bcd60e51b8152602060048201526015602482015274111bd8dd1bdc881b9bdd081c9959da5cdd195c9959605a1b60448201526064016105b8565b6040805160e0810182528781526020808201889052818301879052606082018690526080820185905283151560a08301526001600160a01b038a1660008181526001808452948120600681015460c086015291905292905280519091908190611f509082612edd565b5060208201516001820190611f659082612edd565b5060408201516002820190611f7a9082612edd565b5060608201516003820190611f8f9082612edd565b5060808201516004820190611fa49082612edd565b5060a082015160058201805460ff191691151591909117905560c0909101516006909101556040516001600160a01b038816907f9388661dcd7dc6cff9b4e22ab9459ac0a2682f86cb52fc7a669a6e7f062bce4c906120069089908990612f9d565b60405180910390a250505050505050565b606081336001600160a01b038216148061203b57506000546001600160a01b031633145b8061205557503360009081526003602052604090205460ff165b8061206557506120658133611029565b6120815760405162461bcd60e51b81526004016105b890612dfe565b6001600160a01b03831660009081526005602052604090205460ff166120dd5760405162461bcd60e51b815260206004820152601160248201527014185d1a595b9d081b9bdd08199bdd5b99607a1b60448201526064016105b8565b6001600160a01b0383166000908152600460209081526040918290206003018054835181840281018401909452808452909183018282801561214857602002820191906000526020600020905b81546001600160a01b0316815260019091019060200180831161212a575b5050505050915050919050565b6000806060808080808086808b336001600160a01b038216148061218357506000546001600160a01b031633145b8061219d57503360009081526003602052604090205460ff165b806121ad57506121ad8133611029565b6121c95760405162461bcd60e51b81526004016105b890612dfe565b6001600160a01b038d166000908152600760205260409020548c106122285760405162461bcd60e51b8152602060048201526015602482015274149958dbdc9908191bd95cc81b9bdd08195e1a5cdd605a1b60448201526064016105b8565b6000600660008f6001600160a01b03166001600160a01b0316815260200190815260200160002060008e8152602001908152602001600020905080600001548160010160009054906101000a90046001600160a01b0316826002018360030184600401856005018660060187600701886008015489600901548780546122ad90612dca565b80601f01602080910402602001604051908101604052809291908181526020018280546122d990612dca565b80156123265780601f106122fb57610100808354040283529160200191612326565b820191906000526020600020905b81548152906001019060200180831161230957829003601f168201915b5050505050975086805461233990612dca565b80601f016020809104026020016040519081016040528092919081815260200182805461236590612dca565b80156123b25780601f10612387576101008083540402835291602001916123b2565b820191906000526020600020905b81548152906001019060200180831161239557829003601f168201915b505050505096508580546123c590612dca565b80601f01602080910402602001604051908101604052809291908181526020018280546123f190612dca565b801561243e5780601f106124135761010080835404028352916020019161243e565b820191906000526020600020905b81548152906001019060200180831161242157829003601f168201915b5050505050955084805461245190612dca565b80601f016020809104026020016040519081016040528092919081815260200182805461247d90612dca565b80156124ca5780601f1061249f576101008083540402835291602001916124ca565b820191906000526020600020905b8154815290600101906020018083116124ad57829003601f168201915b505050505094508380546124dd90612dca565b80601f016020809104026020016040519081016040528092919081815260200182805461250990612dca565b80156125565780601f1061252b57610100808354040283529160200191612556565b820191906000526020600020905b81548152906001019060200180831161253957829003601f168201915b5050505050935082805461256990612dca565b80601f016020809104026020016040519081016040528092919081815260200182805461259590612dca565b80156125e25780601f106125b7576101008083540402835291602001916125e2565b820191906000526020600020905b8154815290600101906020018083116125c557829003601f168201915b505050505092509b509b509b509b509b509b509b509b509b509b5050509295989b9194979a5092959850565b828054828255906000526020600020908101928215612663579160200282015b8281111561266357825182546001600160a01b0319166001600160a01b0390911617825560209092019160019091019061262e565b5061266f929150612673565b5090565b5b8082111561266f5760008155600101612674565b80356001600160a01b038116811461269f57600080fd5b919050565b6000602082840312156126b657600080fd5b6126bf82612688565b9392505050565b60005b838110156126e15781810151838201526020016126c9565b50506000910152565b600081518084526127028160208601602086016126c6565b601f01601f19169290920160200192915050565b60a08152600061272960a08301886126ea565b866020840152828103604084015261274181876126ea565b94151560608401525050608001529392505050565b60008060006060848603121561276b57600080fd5b61277484612688565b95602085013595506040909401359392505050565b634e487b7160e01b600052604160045260246000fd5b600082601f8301126127b057600080fd5b813567ffffffffffffffff808211156127cb576127cb612789565b604051601f8301601f19908116603f011681019082821181831017156127f3576127f3612789565b8160405283815286602085880101111561280c57600080fd5b836020870160208301376000602085830101528094505050505092915050565b60008060008060008060c0878903121561284557600080fd5b61284e87612688565b9550602087013567ffffffffffffffff8082111561286b57600080fd5b6128778a838b0161279f565b9650604089013591508082111561288d57600080fd5b6128998a838b0161279f565b955060608901359150808211156128af57600080fd5b6128bb8a838b0161279f565b945060808901359150808211156128d157600080fd5b6128dd8a838b0161279f565b935060a08901359150808211156128f357600080fd5b5061290089828a0161279f565b9150509295509295509295565b60008060006060848603121561292257600080fd5b833567ffffffffffffffff8082111561293a57600080fd5b6129468783880161279f565b945060208601359350604086013591508082111561296357600080fd5b506129708682870161279f565b9150509250925092565b60a08152600061298d60a08301886126ea565b86602084015282810360408401526129a581876126ea565b60608401959095525050608001529392505050565b600080604083850312156129cd57600080fd5b6129d683612688565b91506129e460208401612688565b90509250929050565b600080600080600080600060e0888a031215612a0857600080fd5b612a1188612688565b9650602088013567ffffffffffffffff80821115612a2e57600080fd5b612a3a8b838c0161279f565b975060408a0135915080821115612a5057600080fd5b612a5c8b838c0161279f565b965060608a0135915080821115612a7257600080fd5b612a7e8b838c0161279f565b955060808a0135915080821115612a9457600080fd5b612aa08b838c0161279f565b945060a08a0135915080821115612ab657600080fd5b612ac28b838c0161279f565b935060c08a0135915080821115612ad857600080fd5b50612ae58a828b0161279f565b91505092959891949750929550565b60a081526000612b0760a08301886126ea565b8281036020840152612b1981886126ea565b9050828103604084015261274181876126ea565b60008060408385031215612b4057600080fd5b612b4983612688565b946020939093013593505050565b8a81526001600160a01b038a16602082015261014060408201819052600090612b828382018c6126ea565b90508281036060840152612b96818b6126ea565b90508281036080840152612baa818a6126ea565b905082810360a0840152612bbe81896126ea565b905082810360c0840152612bd281886126ea565b905082810360e0840152612be681876126ea565b6101008401959095525050610120015298975050505050505050565b60e081526000612c1560e083018a6126ea565b8281036020840152612c27818a6126ea565b90508281036040840152612c3b81896126ea565b90508281036060840152612c4f81886126ea565b90508281036080840152612c6381876126ea565b94151560a0840152505060c0015295945050505050565b8035801515811461269f57600080fd5b600080600080600080600060e0888a031215612ca557600080fd5b612cae88612688565b9650602088013567ffffffffffffffff80821115612ccb57600080fd5b612cd78b838c0161279f565b975060408a0135915080821115612ced57600080fd5b612cf98b838c0161279f565b965060608a0135915080821115612d0f57600080fd5b612d1b8b838c0161279f565b955060808a0135915080821115612d3157600080fd5b612d3d8b838c0161279f565b945060a08a0135915080821115612d5357600080fd5b50612d608a828b0161279f565b925050612d6f60c08901612c7a565b905092959891949750929550565b6020808252825182820181905260009190848201906040850190845b81811015612dbe5783516001600160a01b031683529284019291840191600101612d99565b50909695505050505050565b600181811c90821680612dde57607f821691505b6020821081036105dd57634e487b7160e01b600052602260045260246000fd5b6020808252602f908201527f4e6f7420617574686f72697a656420746f20616363657373207468697320706160408201526e7469656e742773207265636f72647360881b606082015260800190565b60208082526021908201527f4f6e6c792061646d696e2063616e2063616c6c20746869732066756e6374696f6040820152603760f91b606082015260800190565b601f821115612ed857600081815260208120601f850160051c81016020861015612eb55750805b601f850160051c820191505b81811015612ed457828155600101612ec1565b5050505b505050565b815167ffffffffffffffff811115612ef757612ef7612789565b612f0b81612f058454612dca565b84612e8e565b602080601f831160018114612f405760008415612f285750858301515b600019600386901b1c1916600185901b178555612ed4565b600085815260208120601f198616915b82811015612f6f57888601518255948401946001909101908401612f50565b5085821015612f8d5787850151600019600388901b60f8161c191681555b5050505050600190811b01905550565b604081526000612fb060408301856126ea565b8281036020840152612fc281856126ea565b95945050505050565b60208082526021908201527f4f6e6c79206f776e65722063616e2063616c6c20746869732066756e6374696f6040820152603760f91b606082015260800190565b6020815260006126bf60208301846126ea565b6020808252602f908201527f4f6e6c7920726567697374657265642070617469656e74732063616e2063616c60408201526e36103a3434b990333ab731ba34b7b760891b606082015260800190565b634e487b7160e01b600052603260045260246000fd5b634e487b7160e01b600052601160045260246000fd5b818103818111156110a9576110a9613084565b634e487b7160e01b600052603160045260246000fd5b6000600182016130d5576130d5613084565b5060010190565b60006bffffffffffffffffffffffff19808d60601b168352808c60601b1660148401525060288a516131148183860160208f016126c6565b8a519084019061312a8184840160208f016126c6565b8a5191019061313f8184840160208e016126c6565b89519101906131548184840160208d016126c6565b88519101906131698184840160208c016126c6565b875191019061317e8184840160208b016126c6565b0190810194909452505060488201526068019897505050505050505056fea2646970667358221220550963c5c55ae5e525fcdc0d5e98d797be1280fc44c81ae84bde4fd1dd526ef264736f6c63430008130033",
  "immutableReferences": {},
  "source": "// SPDX-License-Identifier: MIT\r\npragma solidity ^0.8.0;\r\n\r\ncontract HospitalManagement {\r\n    address public owner;\r\n    \r\n    struct Doctor {\r\n        string name;\r\n        string specialty;\r\n        string licenseNumber;\r\n        string department;\r\n        string contactInfo;\r\n        bool isActive;\r\n        uint256 dateAdded;\r\n    }\r\n    \r\n    struct Patient {\r\n        string name;\r\n        uint256 age;\r\n        string gender;\r\n        address[] authorizedDoctors;\r\n        bool isRegistered;\r\n        uint256 dateRegistered;\r\n    }\r\n    \r\n    struct MedicalRecord {\r\n        uint256 patientId;\r\n        address doctorAddress;\r\n        string recordType;\r\n        string diagnosis;\r\n        string symptoms;\r\n        string treatment;\r\n        string medications;\r\n        string notes;\r\n        uint256 timestamp;\r\n        bytes32 recordHash;\r\n    }\r\n    \r\n    mapping(address => Doctor) public doctors;\r\n    mapping(address => bool) public isDoctor;\r\n    mapping(address => bool) public isAdmin;\r\n    \r\n    mapping(address => Patient) public patients;\r\n    mapping(address => bool) public isPatient;\r\n    \r\n    mapping(address => mapping(uint256 => MedicalRecord)) public patientRecords;\r\n    mapping(address => uint256) public patientRecordCount;\r\n    \r\n    event DoctorAdded(address indexed doctorAddress, string name, string specialty);\r\n    event DoctorRemoved(address indexed doctorAddress);\r\n    event PatientRegistered(address indexed patientAddress, string name);\r\n    event MedicalRecordAdded(address indexed patientAddress, uint256 recordId, bytes32 recordHash);\r\n    event DoctorAuthorized(address indexed patientAddress, address indexed doctorAddress);\r\n    event DoctorDeauthorized(address indexed patientAddress, address indexed doctorAddress);\r\n    \r\n    modifier onlyOwner() {\r\n        require(msg.sender == owner, \"Only owner can call this function\");\r\n        _;\r\n    }\r\n    \r\n    modifier onlyAdmin() {\r\n        require(isAdmin[msg.sender] || msg.sender == owner, \"Only admin can call this function\");\r\n        _;\r\n    }\r\n    \r\n    modifier onlyDoctor() {\r\n        require(isDoctor[msg.sender], \"Only registered doctors can call this function\");\r\n        _;\r\n    }\r\n    \r\n    modifier onlyPatient() {\r\n        require(isPatient[msg.sender], \"Only registered patients can call this function\");\r\n        _;\r\n    }\r\n    \r\n    modifier onlyAuthorized(address patientAddress) {\r\n        require(\r\n            msg.sender == patientAddress || \r\n            msg.sender == owner || \r\n            isAdmin[msg.sender] || \r\n            isAuthorizedDoctor(patientAddress, msg.sender),\r\n            \"Not authorized to access this patient's records\"\r\n        );\r\n        _;\r\n    }\r\n    \r\n    constructor() {\r\n        owner = msg.sender;\r\n        isAdmin[msg.sender] = true;\r\n    }\r\n    \r\n    function addAdmin(address adminAddress) external onlyOwner {\r\n        isAdmin[adminAddress] = true;\r\n    }\r\n    \r\n    function removeAdmin(address adminAddress) external onlyOwner {\r\n        require(adminAddress != owner, \"Cannot remove owner as admin\");\r\n        isAdmin[adminAddress] = false;\r\n    }\r\n    \r\n    function addDoctor(\r\n        address doctorAddress,\r\n        string memory name,\r\n        string memory specialty,\r\n        string memory licenseNumber,\r\n        string memory department,\r\n        string memory contactInfo\r\n    ) external onlyAdmin {\r\n        require(!isDoctor[doctorAddress], \"Doctor already registered\");\r\n        \r\n        doctors[doctorAddress] = Doctor({\r\n            name: name,\r\n            specialty: specialty,\r\n            licenseNumber: licenseNumber,\r\n            department: department,\r\n            contactInfo: contactInfo,\r\n            isActive: true,\r\n            dateAdded: block.timestamp\r\n        });\r\n        \r\n        isDoctor[doctorAddress] = true;\r\n        \r\n        emit DoctorAdded(doctorAddress, name, specialty);\r\n    }\r\n    \r\n    function updateDoctor(\r\n        address doctorAddress,\r\n        string memory name,\r\n        string memory specialty,\r\n        string memory licenseNumber,\r\n        string memory department,\r\n        string memory contactInfo,\r\n        bool isActive\r\n    ) external onlyAdmin {\r\n        require(isDoctor[doctorAddress], \"Doctor not registered\");\r\n        \r\n        doctors[doctorAddress] = Doctor({\r\n            name: name,\r\n            specialty: specialty,\r\n            licenseNumber: licenseNumber,\r\n            department: department,\r\n            contactInfo: contactInfo,\r\n            isActive: isActive,\r\n            dateAdded: doctors[doctorAddress].dateAdded\r\n        });\r\n        \r\n        emit DoctorAdded(doctorAddress, name, specialty);\r\n    }\r\n    \r\n    function removeDoctor(address doctorAddress) external onlyOwner {\r\n        require(isDoctor[doctorAddress], \"Doctor not registered\");\r\n        \r\n        // Mark doctor as inactive\r\n        doctors[doctorAddress].isActive = false;\r\n        isDoctor[doctorAddress] = false;\r\n        \r\n        emit DoctorRemoved(doctorAddress);\r\n    }\r\n    \r\n    function registerPatient(\r\n        string memory name,\r\n        uint256 age,\r\n        string memory gender\r\n    ) external {\r\n        require(!isPatient[msg.sender], \"Patient already registered\");\r\n        \r\n        address[] memory emptyArray = new address[](0);\r\n        \r\n        patients[msg.sender] = Patient({\r\n            name: name,\r\n            age: age,\r\n            gender: gender,\r\n            authorizedDoctors: emptyArray,\r\n            isRegistered: true,\r\n            dateRegistered: block.timestamp\r\n        });\r\n        \r\n        isPatient[msg.sender] = true;\r\n        \r\n        emit PatientRegistered(msg.sender, name);\r\n    }\r\n    \r\n    function authorizeDoctor(address doctorAddress) external onlyPatient {\r\n        require(isDoctor[doctorAddress], \"Not a registered doctor\");\r\n        require(doctors[doctorAddress].isActive, \"Doctor is not active\");\r\n        require(!isAuthorizedDoctor(msg.sender, doctorAddress), \"Doctor already authorized\");\r\n        \r\n        patients[msg.sender].authorizedDoctors.push(doctorAddress);\r\n        \r\n        emit DoctorAuthorized(msg.sender, doctorAddress);\r\n    }\r\n    \r\n    function deauthorizeDoctor(address doctorAddress) external onlyPatient {\r\n        require(isAuthorizedDoctor(msg.sender, doctorAddress), \"Doctor not authorized\");\r\n        \r\n        address[] storage authorizedDoctors = patients[msg.sender].authorizedDoctors;\r\n        for (uint i = 0; i < authorizedDoctors.length; i++) {\r\n            if (authorizedDoctors[i] == doctorAddress) {\r\n                // Replace with the last element and pop\r\n                authorizedDoctors[i] = authorizedDoctors[authorizedDoctors.length - 1];\r\n                authorizedDoctors.pop();\r\n                break;\r\n            }\r\n        }\r\n        \r\n        emit DoctorDeauthorized(msg.sender, doctorAddress);\r\n    }\r\n    \r\n    function isAuthorizedDoctor(address patientAddress, address doctorAddress) public view returns (bool) {\r\n        address[] storage authorizedDoctors = patients[patientAddress].authorizedDoctors;\r\n        for (uint i = 0; i < authorizedDoctors.length; i++) {\r\n            if (authorizedDoctors[i] == doctorAddress) {\r\n                return true;\r\n            }\r\n        }\r\n        return false;\r\n    }\r\n    \r\n    function addMedicalRecord(\r\n        address patientAddress,\r\n        string memory recordType,\r\n        string memory diagnosis,\r\n        string memory symptoms,\r\n        string memory treatment,\r\n        string memory medications,\r\n        string memory notes\r\n    ) external onlyDoctor onlyAuthorized(patientAddress) {\r\n        require(isPatient[patientAddress], \"Patient not registered\");\r\n        \r\n        uint256 recordId = patientRecordCount[patientAddress];\r\n        \r\n        // Create a hash of the record for verification\r\n        bytes32 recordHash = keccak256(abi.encodePacked(\r\n            patientAddress,\r\n            msg.sender,\r\n            recordType,\r\n            diagnosis,\r\n            symptoms,\r\n            treatment,\r\n            medications,\r\n            notes,\r\n            block.timestamp,\r\n            recordId\r\n        ));\r\n        \r\n        MedicalRecord memory newRecord = MedicalRecord({\r\n            patientId: recordId,\r\n            doctorAddress: msg.sender,\r\n            recordType: recordType,\r\n            diagnosis: diagnosis,\r\n            symptoms: symptoms,\r\n            treatment: treatment,\r\n            medications: medications,\r\n            notes: notes,\r\n            timestamp: block.timestamp,\r\n            recordHash: recordHash\r\n        });\r\n        \r\n        patientRecords[patientAddress][recordId] = newRecord;\r\n        patientRecordCount[patientAddress]++;\r\n        \r\n        emit MedicalRecordAdded(patientAddress, recordId, recordHash);\r\n    }\r\n    \r\n    function getMedicalRecord(address patientAddress, uint256 recordId) \r\n        external \r\n        view \r\n        onlyAuthorized(patientAddress) \r\n        returns (\r\n            uint256 patientId,\r\n            address doctorAddress,\r\n            string memory recordType,\r\n            string memory diagnosis,\r\n            string memory symptoms,\r\n            string memory treatment,\r\n            string memory medications,\r\n            string memory notes,\r\n            uint256 timestamp,\r\n            bytes32 recordHash\r\n        ) \r\n    {\r\n        require(recordId < patientRecordCount[patientAddress], \"Record does not exist\");\r\n        \r\n        MedicalRecord storage record = patientRecords[patientAddress][recordId];\r\n        \r\n        return (\r\n            record.patientId,\r\n            record.doctorAddress,\r\n            record.recordType,\r\n            record.diagnosis,\r\n            record.symptoms,\r\n            record.treatment,\r\n            record.medications,\r\n            record.notes,\r\n            record.timestamp,\r\n            record.recordHash\r\n        );\r\n    }\r\n    \r\n    function getPatientRecordCount(address patientAddress) \r\n        external \r\n        view \r\n        onlyAuthorized(patientAddress) \r\n        returns (uint256) \r\n    {\r\n        return patientRecordCount[patientAddress];\r\n    }\r\n    \r\n    function getDoctorInfo(address doctorAddress) \r\n        external \r\n        view \r\n        returns (\r\n            string memory name,\r\n            string memory specialty,\r\n            string memory department,\r\n            bool isActive,\r\n            uint256 dateAdded\r\n        ) \r\n    {\r\n        require(isDoctor[doctorAddress] || doctors[doctorAddress].dateAdded > 0, \"Doctor not found\");\r\n        \r\n        Doctor storage doctor = doctors[doctorAddress];\r\n        \r\n        return (\r\n            doctor.name,\r\n            doctor.specialty,\r\n            doctor.department,\r\n            doctor.isActive,\r\n            doctor.dateAdded\r\n        );\r\n    }\r\n    \r\n    function getPatientInfo(address patientAddress) \r\n        external \r\n        view \r\n        onlyAuthorized(patientAddress) \r\n        returns (\r\n            string memory name,\r\n            uint256 age,\r\n            string memory gender,\r\n            uint256 recordCount,\r\n            uint256 dateRegistered\r\n        ) \r\n    {\r\n        require(isPatient[patientAddress], \"Patient not found\");\r\n        \r\n        Patient storage patient = patients[patientAddress];\r\n        \r\n        return (\r\n            patient.name,\r\n            patient.age,\r\n            patient.gender,\r\n            patientRecordCount[patientAddress],\r\n            patient.dateRegistered\r\n        );\r\n    }\r\n    \r\n    function getAuthorizedDoctors(address patientAddress) \r\n        external \r\n        view \r\n        onlyAuthorized(patientAddress) \r\n        returns (address[] memory) \r\n    {\r\n        require(isPatient[patientAddress], \"Patient not found\");\r\n        \r\n        return patients[patientAddress].authorizedDoctors;\r\n    }\r\n    \r\n    function verifyRecordHash(address patientAddress, uint256 recordId, bytes32 hash) \r\n        external \r\n        view \r\n        returns (bool) \r\n    {\r\n        require(recordId < patientRecordCount[patientAddress], \"Record does not exist\");\r\n        \r\n        return patientRecords[patientAddress][recordId].recordHash == hash;\r\n    }\r\n}\r\n\r\n",
  "sourcePath": "C:\\Users\\rehan\\Downloads\\GIT NEw\\FINAL 2\\hospital-manage\\contracts\\HospitalManagement.sol",
  "compiler": {
    "name": "solc",
    "version": "0.8.19+commit.7dd6d404.Emscripten.clang"
  },
  "schemaVersion": "3.4.16",
  "updatedAt": "2025-03-31T20:18:37.546Z",
  "devdoc": {
    "kind": "dev",
    "methods": {},
    "version": 1
  },
  "userdoc": {
    "kind": "user",
    "methods": {},
    "version": 1
  }
}