{
  "contractName": "UserStorage",
  "abi": [
    {
      "inputs": [],
      "stateMutability": "nonpayable",
      "type": "constructor"
    },
    {
      "inputs": [],
      "name": "admin",
      "outputs": [
        {
          "internalType": "address",
          "name": "",
          "type": "address"
        }
      ],
      "stateMutability": "view",
      "type": "function"
    },
    {
      "inputs": [
        {
          "internalType": "uint256",
          "name": "",
          "type": "uint256"
        }
      ],
      "name": "userAddresses",
      "outputs": [
        {
          "internalType": "address",
          "name": "",
          "type": "address"
        }
      ],
      "stateMutability": "view",
      "type": "function"
    },
    {
      "inputs": [
        {
          "internalType": "address",
          "name": "",
          "type": "address"
        }
      ],
      "name": "users",
      "outputs": [
        {
          "internalType": "string",
          "name": "role",
          "type": "string"
        },
        {
          "internalType": "string",
          "name": "name",
          "type": "string"
        },
        {
          "internalType": "string",
          "name": "email",
          "type": "string"
        },
        {
          "internalType": "uint256",
          "name": "signupTimestamp",
          "type": "uint256"
        },
        {
          "internalType": "uint256",
          "name": "lastLoginTimestamp",
          "type": "uint256"
        }
      ],
      "stateMutability": "view",
      "type": "function"
    },
    {
      "inputs": [
        {
          "internalType": "string",
          "name": "_role",
          "type": "string"
        },
        {
          "internalType": "string",
          "name": "_name",
          "type": "string"
        },
        {
          "internalType": "string",
          "name": "_email",
          "type": "string"
        }
      ],
      "name": "addUser",
      "outputs": [],
      "stateMutability": "nonpayable",
      "type": "function"
    },
    {
      "inputs": [],
      "name": "getAllUsers",
      "outputs": [
        {
          "components": [
            {
              "internalType": "string",
              "name": "role",
              "type": "string"
            },
            {
              "internalType": "string",
              "name": "name",
              "type": "string"
            },
            {
              "internalType": "string",
              "name": "email",
              "type": "string"
            },
            {
              "internalType": "uint256",
              "name": "signupTimestamp",
              "type": "uint256"
            },
            {
              "internalType": "uint256",
              "name": "lastLoginTimestamp",
              "type": "uint256"
            }
          ],
          "internalType": "struct UserStorage.User[]",
          "name": "",
          "type": "tuple[]"
        }
      ],
      "stateMutability": "view",
      "type": "function"
    },
    {
      "inputs": [
        {
          "internalType": "address",
          "name": "_user",
          "type": "address"
        }
      ],
      "name": "recordLogin",
      "outputs": [],
      "stateMutability": "nonpayable",
      "type": "function"
    }
  ],
  "bytecode": "0x608060405234801561001057600080fd5b50600280546001600160a01b03191633179055610c3e806100326000396000f3fe608060405234801561001057600080fd5b50600436106100625760003560e01c80630b5b48c114610067578063502c9bd51461007c57806395c5fed4146100ac578063a87430ba146100bf578063e2842d79146100e3578063f851a440146100f8575b600080fd5b61007a6100753660046107cb565b61010b565b005b61008f61008a3660046107fb565b610190565b6040516001600160a01b0390911681526020015b60405180910390f35b61007a6100ba3660046108b7565b6101ba565b6100d26100cd3660046107cb565b6102da565b6040516100a3959493929190610985565b6100eb6104a0565b6040516100a391906109d3565b60025461008f906001600160a01b031681565b6001600160a01b03811660009081526020819052604081206003015490036101705760405162461bcd60e51b8152602060048201526013602482015272155cd95c88191bd95cc81b9bdd08195e1a5cdd606a1b60448201526064015b60405180910390fd5b6001600160a01b0316600090815260208190526040902042600490910155565b600181815481106101a057600080fd5b6000918252602090912001546001600160a01b0316905081565b33600090815260208190526040902060030154156102105760405162461bcd60e51b81526020600482015260136024820152725573657220616c72656164792065786973747360681b6044820152606401610167565b6040805160a08101825284815260208082018590528183018490524260608301526000608083018190523381529081905291909120815181906102539082610b0b565b50602082015160018201906102689082610b0b565b506040820151600282019061027d9082610b0b565b506060820151600382015560809091015160049091015550506001805480820182556000919091527fb10e2d527612073b26eecdfd717e6a320cf44b4afac2b0732d9fcbe2b7fa0cf60180546001600160a01b0319163317905550565b6000602081905290815260409020805481906102f590610a88565b80601f016020809104026020016040519081016040528092919081815260200182805461032190610a88565b801561036e5780601f106103435761010080835404028352916020019161036e565b820191906000526020600020905b81548152906001019060200180831161035157829003601f168201915b50505050509080600101805461038390610a88565b80601f01602080910402602001604051908101604052809291908181526020018280546103af90610a88565b80156103fc5780601f106103d1576101008083540402835291602001916103fc565b820191906000526020600020905b8154815290600101906020018083116103df57829003601f168201915b50505050509080600201805461041190610a88565b80601f016020809104026020016040519081016040528092919081815260200182805461043d90610a88565b801561048a5780601f1061045f5761010080835404028352916020019161048a565b820191906000526020600020905b81548152906001019060200180831161046d57829003601f168201915b5050505050908060030154908060040154905085565b6002546060906001600160a01b031633146104f55760405162461bcd60e51b81526020600482015260156024820152744f6e6c792061646d696e2063616e2061636365737360581b6044820152606401610167565b60015460009067ffffffffffffffff81111561051357610513610814565b60405190808252806020026020018201604052801561057657816020015b6105636040518060a0016040528060608152602001606081526020016060815260200160008152602001600081525090565b8152602001906001900390816105315790505b50905060005b6001548110156107c5576000806001838154811061059c5761059c610bcb565b60009182526020808320909101546001600160a01b031683528201929092526040908101909120815160a081019092528054829082906105db90610a88565b80601f016020809104026020016040519081016040528092919081815260200182805461060790610a88565b80156106545780601f1061062957610100808354040283529160200191610654565b820191906000526020600020905b81548152906001019060200180831161063757829003601f168201915b5050505050815260200160018201805461066d90610a88565b80601f016020809104026020016040519081016040528092919081815260200182805461069990610a88565b80156106e65780601f106106bb576101008083540402835291602001916106e6565b820191906000526020600020905b8154815290600101906020018083116106c957829003601f168201915b505050505081526020016002820180546106ff90610a88565b80601f016020809104026020016040519081016040528092919081815260200182805461072b90610a88565b80156107785780601f1061074d57610100808354040283529160200191610778565b820191906000526020600020905b81548152906001019060200180831161075b57829003601f168201915b50505050508152602001600382015481526020016004820154815250508282815181106107a7576107a7610bcb565b602002602001018190525080806107bd90610be1565b91505061057c565b50919050565b6000602082840312156107dd57600080fd5b81356001600160a01b03811681146107f457600080fd5b9392505050565b60006020828403121561080d57600080fd5b5035919050565b634e487b7160e01b600052604160045260246000fd5b600082601f83011261083b57600080fd5b813567ffffffffffffffff8082111561085657610856610814565b604051601f8301601f19908116603f0116810190828211818310171561087e5761087e610814565b8160405283815286602085880101111561089757600080fd5b836020870160208301376000602085830101528094505050505092915050565b6000806000606084860312156108cc57600080fd5b833567ffffffffffffffff808211156108e457600080fd5b6108f08783880161082a565b9450602086013591508082111561090657600080fd5b6109128783880161082a565b9350604086013591508082111561092857600080fd5b506109358682870161082a565b9150509250925092565b6000815180845260005b8181101561096557602081850181015186830182015201610949565b506000602082860101526020601f19601f83011685010191505092915050565b60a08152600061099860a083018861093f565b82810360208401526109aa818861093f565b905082810360408401526109be818761093f565b60608401959095525050608001529392505050565b60006020808301818452808551808352604092508286019150828160051b87010184880160005b83811015610a7a57603f19898403018552815160a08151818652610a208287018261093f565b915050888201518582038a870152610a38828261093f565b9150508782015185820389870152610a50828261093f565b606084810151908801526080938401519390960192909252505093860193908601906001016109fa565b509098975050505050505050565b600181811c90821680610a9c57607f821691505b6020821081036107c557634e487b7160e01b600052602260045260246000fd5b601f821115610b0657600081815260208120601f850160051c81016020861015610ae35750805b601f850160051c820191505b81811015610b0257828155600101610aef565b5050505b505050565b815167ffffffffffffffff811115610b2557610b25610814565b610b3981610b338454610a88565b84610abc565b602080601f831160018114610b6e5760008415610b565750858301515b600019600386901b1c1916600185901b178555610b02565b600085815260208120601f198616915b82811015610b9d57888601518255948401946001909101908401610b7e565b5085821015610bbb5787850151600019600388901b60f8161c191681555b5050505050600190811b01905550565b634e487b7160e01b600052603260045260246000fd5b600060018201610c0157634e487b7160e01b600052601160045260246000fd5b506001019056fea2646970667358221220d4487371ba08f4b620c8468aa9c0cccc9e35f1281487d57a2f68edcc8101fc2864736f6c63430008130033",
  "immutableReferences": {},
  "source": "// SPDX-License-Identifier: MIT\r\npragma solidity ^0.8.0;\r\n\r\ncontract UserStorage {\r\n    struct User {\r\n        string role;\r\n        string name;\r\n        string email;\r\n        uint256 signupTimestamp;\r\n        uint256 lastLoginTimestamp;\r\n    }\r\n    \r\n    mapping(address => User) public users;\r\n    address[] public userAddresses;\r\n    address public admin;\r\n\r\n    constructor() {\r\n        admin = msg.sender;\r\n    }\r\n\r\n    function addUser(string memory _role, string memory _name, string memory _email) public {\r\n        require(users[msg.sender].signupTimestamp == 0, \"User already exists\");\r\n        users[msg.sender] = User(_role, _name, _email, block.timestamp, 0);\r\n        userAddresses.push(msg.sender);\r\n    }\r\n\r\n    function getAllUsers() public view returns (User[] memory) {\r\n        require(msg.sender == admin, \"Only admin can access\");\r\n        User[] memory allUsers = new User[](userAddresses.length);\r\n        for(uint i = 0; i < userAddresses.length; i++) {\r\n            allUsers[i] = users[userAddresses[i]];\r\n        }\r\n        return allUsers;\r\n    }\r\n\r\n    function recordLogin(address _user) public {\r\n        require(users[_user].signupTimestamp != 0, \"User does not exist\");\r\n        users[_user].lastLoginTimestamp = block.timestamp;\r\n    }\r\n}",
  "sourcePath": "C:\\Users\\rehan\\Downloads\\GIT NEw\\FINAL 2\\hospital-manage\\contracts\\UserStorage.sol",
  "compiler": {
    "name": "solc",
    "version": "0.8.19+commit.7dd6d404.Emscripten.clang"
  },
  "schemaVersion": "3.4.16",
  "updatedAt": "2025-03-31T20:18:37.553Z",
  "devdoc": {
    "kind": "dev",
    "methods": {},
    "version": 1
  },
  "userdoc": {
    "kind": "user",
    "methods": {},
    "version": 1
  }
}